{
  "contractName": "Escrow",
  "abi": [
    {
      "constant": false,
      "inputs": [],
      "name": "pay",
      "outputs": [],
      "payable": true,
      "type": "function",
      "stateMutability": "payable"
    },
    {
      "constant": true,
      "inputs": [],
      "name": "title",
      "outputs": [
        {
          "name": "",
          "type": "string"
        }
      ],
      "payable": false,
      "type": "function",
      "stateMutability": "view"
    },
    {
      "constant": false,
      "inputs": [],
      "name": "refund",
      "outputs": [],
      "payable": true,
      "type": "function",
      "stateMutability": "payable"
    },
    {
      "constant": true,
      "inputs": [],
      "name": "bidValue",
      "outputs": [
        {
          "name": "",
          "type": "uint256"
        }
      ],
      "payable": false,
      "type": "function",
      "stateMutability": "view"
    },
    {
      "constant": true,
      "inputs": [],
      "name": "starttime",
      "outputs": [
        {
          "name": "",
          "type": "uint256"
        }
      ],
      "payable": false,
      "type": "function",
      "stateMutability": "view"
    },
    {
      "constant": true,
      "inputs": [],
      "name": "timeframe",
      "outputs": [
        {
          "name": "",
          "type": "uint256"
        }
      ],
      "payable": false,
      "type": "function",
      "stateMutability": "view"
    }
  ],
  "bytecode": "0x606060405273618104bce7958ed2883006fec6009336dc05bf0d6000806101000a81548173ffffffffffffffffffffffffffffffffffffffff021916908373ffffffffffffffffffffffffffffffffffffffff16021790555073618104bce7958ed2883006fec6009336dc05bf0d600160006101000a81548173ffffffffffffffffffffffffffffffffffffffff021916908373ffffffffffffffffffffffffffffffffffffffff1602179055506040805190810160405280600e81526020017f6875726966792074657374696e67000000000000000000000000000000000000815250600290805190602001906100f8929190610170565b5060016003556022600455635a4481586005557340e624d93110a8324920f011b80c6db0fab2b85b600660006101000a81548173ffffffffffffffffffffffffffffffffffffffff021916908373ffffffffffffffffffffffffffffffffffffffff160217905550341561016b57600080fd5b610215565b828054600181600116156101000203166002900490600052602060002090601f016020900481019282601f106101b157805160ff19168380011785556101df565b828001600101855582156101df579182015b828111156101de5782518255916020019190600101906101c3565b5b5090506101ec91906101f0565b5090565b61021291905b8082111561020e5760008160009055506001016101f6565b5090565b90565b6105a6806102246000396000f300606060405260043610610078576000357c0100000000000000000000000000000000000000000000000000000000900463ffffffff1680631b9265b81461007d5780634a79d50c14610087578063590e1ae31461011557806372e92e221461011f5780638da5889714610148578063ba59b66f14610171575b600080fd5b61008561019a565b005b341561009257600080fd5b61009a610328565b6040518080602001828103825283818151815260200191508051906020019080838360005b838110156100da5780820151818401526020810190506100bf565b50505050905090810190601f1680156101075780820380516001836020036101000a031916815260200191505b509250505060405180910390f35b61011d6103c6565b005b341561012a57600080fd5b610132610568565b6040518082815260200191505060405180910390f35b341561015357600080fd5b61015b61056e565b6040518082815260200191505060405180910390f35b341561017c57600080fd5b610184610574565b6040518082815260200191505060405180910390f35b600660009054906101000a900473ffffffffffffffffffffffffffffffffffffffff1673ffffffffffffffffffffffffffffffffffffffff1660405180807f7472616e7366657246726f6d28626f6f6c290000000000000000000000000000815250601201905060405180910390207c010000000000000000000000000000000000000000000000000000000090046000809054906101000a900473ffffffffffffffffffffffffffffffffffffffff16600160009054906101000a900473ffffffffffffffffffffffffffffffffffffffff166003546040518463ffffffff167c0100000000000000000000000000000000000000000000000000000000028152600401808473ffffffffffffffffffffffffffffffffffffffff1673ffffffffffffffffffffffffffffffffffffffff1681526020018373ffffffffffffffffffffffffffffffffffffffff1673ffffffffffffffffffffffffffffffffffffffff168152602001828152602001935050505060006040518083038160008761646e5a03f19250505050565b60028054600181600116156101000203166002900480601f0160208091040260200160405190810160405280929190818152602001828054600181600116156101000203166002900480156103be5780601f10610393576101008083540402835291602001916103be565b820191906000526020600020905b8154815290600101906020018083116103a157829003601f168201915b505050505081565b622cd30060055401421115156103db57600080fd5b600660009054906101000a900473ffffffffffffffffffffffffffffffffffffffff1673ffffffffffffffffffffffffffffffffffffffff1660405180807f7472616e7366657246726f6d28626f6f6c290000000000000000000000000000815250601201905060405180910390207c010000000000000000000000000000000000000000000000000000000090046000809054906101000a900473ffffffffffffffffffffffffffffffffffffffff166000809054906101000a900473ffffffffffffffffffffffffffffffffffffffff166003546040518463ffffffff167c0100000000000000000000000000000000000000000000000000000000028152600401808473ffffffffffffffffffffffffffffffffffffffff1673ffffffffffffffffffffffffffffffffffffffff1681526020018373ffffffffffffffffffffffffffffffffffffffff1673ffffffffffffffffffffffffffffffffffffffff168152602001828152602001935050505060006040518083038160008761646e5a03f19250505050565b60035481565b60055481565b600454815600a165627a7a723058207e439aebb0b471315fed19102854de28280dbd83b1d8b6d15acb76fb9a3588ec0029",
  "source": "pragma solidity ^0.4.15;\n\ncontract Escrow {\n\t/*\n\tGobal variables are declared here\n\t*/\n\taddress client = 0x618104bCe7958ed2883006fec6009336dc05Bf0d;\n\taddress developer = 0x618104bCe7958ed2883006fec6009336dc05Bf0d;\n\tstring public title = \"hurify testing\";\n\tuint public bidValue = 1.00;\n\tuint public timeframe = 34;\n\tuint public starttime = 1514439000; \n\taddress hurify = 0x40e624d93110a8324920f011b80c6db0fab2b85b ;\n\n\tfunction pay() payable public { \n\t\thurify.call(bytes4(sha3(\"transferFrom(bool)\")), client, developer, bidValue); \n\t } \n\n\t function refund() payable public { \n\t\t require( now > starttime + 34 days); \n\t\thurify.call(bytes4(sha3(\"transferFrom(bool)\")), client, client, bidValue);\n\t}\n\n}",
  "sourcePath": "/home/ubuntu/Hurify/App/client/components/DApp/contracts/Escrow.sol",
  "compiler": {
    "name": "solc",
    "version": "0.4.18+commit.9cf6e910.Emscripten.clang"
  },
  "schemaVersion": "1.0.1",
  "updatedAt": "2017-12-28T11:05:47.865Z"
}