{
  "contractName": "Hurify",
  "abi": [
    {
      "constant": false,
      "inputs": [],
      "name": "pauseable",
      "outputs": [],
      "payable": false,
      "stateMutability": "nonpayable",
      "type": "function"
    },
    {
      "constant": true,
      "inputs": [],
      "name": "name",
      "outputs": [
        {
          "name": "",
          "type": "string"
        }
      ],
      "payable": false,
      "stateMutability": "view",
      "type": "function"
    },
    {
      "constant": false,
      "inputs": [
        {
          "name": "_spender",
          "type": "address"
        },
        {
          "name": "_value",
          "type": "uint256"
        }
      ],
      "name": "approve",
      "outputs": [
        {
          "name": "",
          "type": "bool"
        }
      ],
      "payable": false,
      "stateMutability": "nonpayable",
      "type": "function"
    },
    {
      "constant": true,
      "inputs": [],
      "name": "totalSupply",
      "outputs": [
        {
          "name": "Supply",
          "type": "uint256"
        }
      ],
      "payable": false,
      "stateMutability": "view",
      "type": "function"
    },
    {
      "constant": false,
      "inputs": [
        {
          "name": "_from",
          "type": "address"
        },
        {
          "name": "_to",
          "type": "address"
        },
        {
          "name": "_value",
          "type": "uint256"
        }
      ],
      "name": "transferFrom",
      "outputs": [
        {
          "name": "success",
          "type": "bool"
        }
      ],
      "payable": false,
      "stateMutability": "nonpayable",
      "type": "function"
    },
    {
      "constant": false,
      "inputs": [
        {
          "name": "_value",
          "type": "uint256"
        }
      ],
      "name": "tokensup",
      "outputs": [],
      "payable": false,
      "stateMutability": "nonpayable",
      "type": "function"
    },
    {
      "constant": true,
      "inputs": [],
      "name": "hault",
      "outputs": [
        {
          "name": "",
          "type": "bool"
        }
      ],
      "payable": false,
      "stateMutability": "view",
      "type": "function"
    },
    {
      "constant": true,
      "inputs": [],
      "name": "decimals",
      "outputs": [
        {
          "name": "",
          "type": "uint256"
        }
      ],
      "payable": false,
      "stateMutability": "view",
      "type": "function"
    },
    {
      "constant": false,
      "inputs": [],
      "name": "unpause",
      "outputs": [],
      "payable": false,
      "stateMutability": "nonpayable",
      "type": "function"
    },
    {
      "constant": false,
      "inputs": [
        {
          "name": "_value",
          "type": "uint256"
        }
      ],
      "name": "burn",
      "outputs": [
        {
          "name": "success",
          "type": "bool"
        }
      ],
      "payable": false,
      "stateMutability": "nonpayable",
      "type": "function"
    },
    {
      "constant": false,
      "inputs": [
        {
          "name": "_client",
          "type": "address"
        },
        {
          "name": "_value",
          "type": "uint256"
        },
        {
          "name": "_type",
          "type": "uint256"
        }
      ],
      "name": "hurifymint",
      "outputs": [],
      "payable": false,
      "stateMutability": "nonpayable",
      "type": "function"
    },
    {
      "constant": true,
      "inputs": [
        {
          "name": "_from",
          "type": "address"
        }
      ],
      "name": "balanceOf",
      "outputs": [
        {
          "name": "balance",
          "type": "uint256"
        }
      ],
      "payable": false,
      "stateMutability": "view",
      "type": "function"
    },
    {
      "constant": false,
      "inputs": [
        {
          "name": "_client",
          "type": "address"
        },
        {
          "name": "_value",
          "type": "uint256"
        }
      ],
      "name": "hurmint",
      "outputs": [],
      "payable": false,
      "stateMutability": "nonpayable",
      "type": "function"
    },
    {
      "constant": true,
      "inputs": [],
      "name": "owner",
      "outputs": [
        {
          "name": "",
          "type": "address"
        }
      ],
      "payable": false,
      "stateMutability": "view",
      "type": "function"
    },
    {
      "constant": true,
      "inputs": [],
      "name": "symbol",
      "outputs": [
        {
          "name": "",
          "type": "string"
        }
      ],
      "payable": false,
      "stateMutability": "view",
      "type": "function"
    },
    {
      "constant": false,
      "inputs": [
        {
          "name": "_to",
          "type": "address"
        },
        {
          "name": "_value",
          "type": "uint256"
        }
      ],
      "name": "transfer",
      "outputs": [
        {
          "name": "success",
          "type": "bool"
        }
      ],
      "payable": false,
      "stateMutability": "nonpayable",
      "type": "function"
    },
    {
      "constant": true,
      "inputs": [
        {
          "name": "_owner",
          "type": "address"
        },
        {
          "name": "_spender",
          "type": "address"
        }
      ],
      "name": "allowance",
      "outputs": [
        {
          "name": "",
          "type": "uint256"
        }
      ],
      "payable": false,
      "stateMutability": "view",
      "type": "function"
    },
    {
      "inputs": [
        {
          "name": "_hurclan",
          "type": "address"
        }
      ],
      "payable": false,
      "stateMutability": "nonpayable",
      "type": "constructor"
    },
    {
      "anonymous": false,
      "inputs": [
        {
          "indexed": true,
          "name": "from",
          "type": "address"
        },
        {
          "indexed": true,
          "name": "to",
          "type": "address"
        },
        {
          "indexed": false,
          "name": "value",
          "type": "uint256"
        }
      ],
      "name": "Transfer",
      "type": "event"
    },
    {
      "anonymous": false,
      "inputs": [
        {
          "indexed": false,
          "name": "_from",
          "type": "address"
        },
        {
          "indexed": false,
          "name": "_value",
          "type": "uint256"
        }
      ],
      "name": "Burn",
      "type": "event"
    },
    {
      "anonymous": false,
      "inputs": [
        {
          "indexed": false,
          "name": "_from",
          "type": "address"
        },
        {
          "indexed": false,
          "name": "_to",
          "type": "address"
        },
        {
          "indexed": false,
          "name": "_value",
          "type": "uint256"
        }
      ],
      "name": "Approval",
      "type": "event"
    }
  ],
  "bytecode": "60606040526040805190810160405280600c81526020017f48757269667920546f6b656e000000000000000000000000000000000000000081525060009080519060200190620000519291906200025e565b506040805190810160405280600381526020017f4855520000000000000000000000000000000000000000000000000000000000815250600190805190602001906200009f9291906200025e565b5060126002556000600660006101000a81548160ff0219169083151502179055503415620000cc57600080fd5b60405160208062001b688339810160405280805190602001909190505033600360006101000a81548173ffffffffffffffffffffffffffffffffffffffff021916908373ffffffffffffffffffffffffffffffffffffffff160217905550600254600a0a630caa7e2002600760003373ffffffffffffffffffffffffffffffffffffffff1673ffffffffffffffffffffffffffffffffffffffff16815260200190815260200160002081905550600254600a0a6310478e8802600481905550620001f5600760008373ffffffffffffffffffffffffffffffffffffffff1673ffffffffffffffffffffffffffffffffffffffff16815260200190815260200160002054600254600a0a63032a9f88026200023f64010000000002620017e8176401000000009004565b600760008373ffffffffffffffffffffffffffffffffffffffff1673ffffffffffffffffffffffffffffffffffffffff16815260200190815260200160002081905550506200030d565b60008082840190508381101515156200025457fe5b8091505092915050565b828054600181600116156101000203166002900490600052602060002090601f016020900481019282601f10620002a157805160ff1916838001178555620002d2565b82800160010185558215620002d2579182015b82811115620002d1578251825591602001919060010190620002b4565b5b509050620002e19190620002e5565b5090565b6200030a91905b8082111562000306576000816000905550600101620002ec565b5090565b90565b61184b806200031d6000396000f3006060604052600436106100f1576000357c0100000000000000000000000000000000000000000000000000000000900463ffffffff16806303b98c0e146100f657806306fdde031461010b578063095ea7b31461019957806318160ddd146101f357806323b872dd1461021c578063247aebbb14610295578063275103fd146102b8578063313ce567146102e55780633f4ba83a1461030e57806342966c68146103235780634d32ef8c1461035e57806370a08231146103a9578063723eb2cc146103f65780638da5cb5b1461043857806395d89b411461048d578063a9059cbb1461051b578063dd62ed3e14610575575b600080fd5b341561010157600080fd5b6101096105e1565b005b341561011657600080fd5b61011e61065a565b6040518080602001828103825283818151815260200191508051906020019080838360005b8381101561015e578082015181840152602081019050610143565b50505050905090810190601f16801561018b5780820380516001836020036101000a031916815260200191505b509250505060405180910390f35b34156101a457600080fd5b6101d9600480803573ffffffffffffffffffffffffffffffffffffffff169060200190919080359060200190919050506106f8565b604051808215151515815260200191505060405180910390f35b34156101fe57600080fd5b610206610824565b6040518082815260200191505060405180910390f35b341561022757600080fd5b61027b600480803573ffffffffffffffffffffffffffffffffffffffff1690602001909190803573ffffffffffffffffffffffffffffffffffffffff1690602001909190803590602001909190505061082e565b604051808215151515815260200191505060405180910390f35b34156102a057600080fd5b6102b66004808035906020019091905050610bac565b005b34156102c357600080fd5b6102cb610cfb565b604051808215151515815260200191505060405180910390f35b34156102f057600080fd5b6102f8610d0e565b6040518082815260200191505060405180910390f35b341561031957600080fd5b610321610d14565b005b341561032e57600080fd5b6103446004808035906020019091905050610d8d565b604051808215151515815260200191505060405180910390f35b341561036957600080fd5b6103a7600480803573ffffffffffffffffffffffffffffffffffffffff16906020019091908035906020019091908035906020019091905050610f4b565b005b34156103b457600080fd5b6103e0600480803573ffffffffffffffffffffffffffffffffffffffff169060200190919050506111ec565b6040518082815260200191505060405180910390f35b341561040157600080fd5b610436600480803573ffffffffffffffffffffffffffffffffffffffff16906020019091908035906020019091905050611235565b005b341561044357600080fd5b61044b6114aa565b604051808273ffffffffffffffffffffffffffffffffffffffff1673ffffffffffffffffffffffffffffffffffffffff16815260200191505060405180910390f35b341561049857600080fd5b6104a06114d0565b6040518080602001828103825283818151815260200191508051906020019080838360005b838110156104e05780820151818401526020810190506104c5565b50505050905090810190601f16801561050d5780820380516001836020036101000a031916815260200191505b509250505060405180910390f35b341561052657600080fd5b61055b600480803573ffffffffffffffffffffffffffffffffffffffff1690602001909190803590602001909190505061156e565b604051808215151515815260200191505060405180910390f35b341561058057600080fd5b6105cb600480803573ffffffffffffffffffffffffffffffffffffffff1690602001909190803573ffffffffffffffffffffffffffffffffffffffff16906020019091905050611761565b6040518082815260200191505060405180910390f35b3373ffffffffffffffffffffffffffffffffffffffff16600360009054906101000a900473ffffffffffffffffffffffffffffffffffffffff1673ffffffffffffffffffffffffffffffffffffffff1614151561063d57600080fd5b6001600660006101000a81548160ff021916908315150217905550565b60008054600181600116156101000203166002900480601f0160208091040260200160405190810160405280929190818152602001828054600181600116156101000203166002900480156106f05780601f106106c5576101008083540402835291602001916106f0565b820191906000526020600020905b8154815290600101906020018083116106d357829003601f168201915b505050505081565b600081600860003373ffffffffffffffffffffffffffffffffffffffff1673ffffffffffffffffffffffffffffffffffffffff16815260200190815260200160002060008573ffffffffffffffffffffffffffffffffffffffff1673ffffffffffffffffffffffffffffffffffffffff168152602001908152602001600020819055507f8c5be1e5ebec7d5bd14f71427d1e84f3dd0314c0f7b2291e5b200ac8c7c3b925338484604051808473ffffffffffffffffffffffffffffffffffffffff1673ffffffffffffffffffffffffffffffffffffffff1681526020018373ffffffffffffffffffffffffffffffffffffffff1673ffffffffffffffffffffffffffffffffffffffff168152602001828152602001935050505060405180910390a16001905092915050565b6000600454905090565b600081600760008673ffffffffffffffffffffffffffffffffffffffff1673ffffffffffffffffffffffffffffffffffffffff1681526020019081526020016000205410806108f8575081600860008673ffffffffffffffffffffffffffffffffffffffff1673ffffffffffffffffffffffffffffffffffffffff16815260200190815260200160002060003373ffffffffffffffffffffffffffffffffffffffff1673ffffffffffffffffffffffffffffffffffffffff16815260200190815260200160002054105b1561090257600080fd5b600660009054906101000a900460ff1615151561091e57600080fd5b610967600760008573ffffffffffffffffffffffffffffffffffffffff1673ffffffffffffffffffffffffffffffffffffffff16815260200190815260200160002054836117e8565b600760008573ffffffffffffffffffffffffffffffffffffffff1673ffffffffffffffffffffffffffffffffffffffff168152602001908152602001600020819055506109f3600760008673ffffffffffffffffffffffffffffffffffffffff1673ffffffffffffffffffffffffffffffffffffffff1681526020019081526020016000205483611806565b600760008673ffffffffffffffffffffffffffffffffffffffff1673ffffffffffffffffffffffffffffffffffffffff16815260200190815260200160002081905550610abc600860008673ffffffffffffffffffffffffffffffffffffffff1673ffffffffffffffffffffffffffffffffffffffff16815260200190815260200160002060003373ffffffffffffffffffffffffffffffffffffffff1673ffffffffffffffffffffffffffffffffffffffff1681526020019081526020016000205483611806565b600860008673ffffffffffffffffffffffffffffffffffffffff1673ffffffffffffffffffffffffffffffffffffffff16815260200190815260200160002060003373ffffffffffffffffffffffffffffffffffffffff1673ffffffffffffffffffffffffffffffffffffffff168152602001908152602001600020819055508273ffffffffffffffffffffffffffffffffffffffff168473ffffffffffffffffffffffffffffffffffffffff167fddf252ad1be2c89b69c2b068fc378daa952ba7f163c4a11628f55a4df523b3ef846040518082815260200191505060405180910390a3600190509392505050565b3373ffffffffffffffffffffffffffffffffffffffff16600360009054906101000a900473ffffffffffffffffffffffffffffffffffffffff1673ffffffffffffffffffffffffffffffffffffffff16141515610c0857600080fd5b610c1b600454600254600a0a83026117e8565b600481905550610c9360076000600360009054906101000a900473ffffffffffffffffffffffffffffffffffffffff1673ffffffffffffffffffffffffffffffffffffffff1673ffffffffffffffffffffffffffffffffffffffff16815260200190815260200160002054600254600a0a83026117e8565b60076000600360009054906101000a900473ffffffffffffffffffffffffffffffffffffffff1673ffffffffffffffffffffffffffffffffffffffff1673ffffffffffffffffffffffffffffffffffffffff1681526020019081526020016000208190555050565b600660009054906101000a900460ff1681565b60025481565b3373ffffffffffffffffffffffffffffffffffffffff16600360009054906101000a900473ffffffffffffffffffffffffffffffffffffffff1673ffffffffffffffffffffffffffffffffffffffff16141515610d7057600080fd5b6000600660006101000a81548160ff021916908315150217905550565b60003373ffffffffffffffffffffffffffffffffffffffff16600360009054906101000a900473ffffffffffffffffffffffffffffffffffffffff1673ffffffffffffffffffffffffffffffffffffffff16141515610deb57600080fd5b81600760003373ffffffffffffffffffffffffffffffffffffffff1673ffffffffffffffffffffffffffffffffffffffff1681526020019081526020016000205410151515610e3957600080fd5b610e82600760003373ffffffffffffffffffffffffffffffffffffffff1673ffffffffffffffffffffffffffffffffffffffff1681526020019081526020016000205483611806565b600760003373ffffffffffffffffffffffffffffffffffffffff1673ffffffffffffffffffffffffffffffffffffffff16815260200190815260200160002081905550610ed160045483611806565b6004819055507fcc16f5dbb4873280815c1ee09dbd06736cffcc184412cf7a71a0fdb75d397ca53383604051808373ffffffffffffffffffffffffffffffffffffffff1673ffffffffffffffffffffffffffffffffffffffff1681526020018281526020019250505060405180910390a160019050919050565b60003373ffffffffffffffffffffffffffffffffffffffff16600360009054906101000a900473ffffffffffffffffffffffffffffffffffffffff1673ffffffffffffffffffffffffffffffffffffffff16141515610fa957600080fd5b60045460055411151515610fbc57600080fd5b6001821415610fd857600254600a0a6117708402029050610ff1565b6002821415610ff057600254600a0a61138884020290505b5b61105c60076000600360009054906101000a900473ffffffffffffffffffffffffffffffffffffffff1673ffffffffffffffffffffffffffffffffffffffff1673ffffffffffffffffffffffffffffffffffffffff1681526020019081526020016000205482611806565b60076000600360009054906101000a900473ffffffffffffffffffffffffffffffffffffffff1673ffffffffffffffffffffffffffffffffffffffff1673ffffffffffffffffffffffffffffffffffffffff1681526020019081526020016000208190555061110a600760008673ffffffffffffffffffffffffffffffffffffffff1673ffffffffffffffffffffffffffffffffffffffff16815260200190815260200160002054826117e8565b600760008673ffffffffffffffffffffffffffffffffffffffff1673ffffffffffffffffffffffffffffffffffffffff16815260200190815260200160002081905550611159600554826117e8565b6005819055508373ffffffffffffffffffffffffffffffffffffffff16600360009054906101000a900473ffffffffffffffffffffffffffffffffffffffff1673ffffffffffffffffffffffffffffffffffffffff167fddf252ad1be2c89b69c2b068fc378daa952ba7f163c4a11628f55a4df523b3ef836040518082815260200191505060405180910390a350505050565b6000600760008373ffffffffffffffffffffffffffffffffffffffff1673ffffffffffffffffffffffffffffffffffffffff168152602001908152602001600020549050919050565b60003373ffffffffffffffffffffffffffffffffffffffff16600360009054906101000a900473ffffffffffffffffffffffffffffffffffffffff1673ffffffffffffffffffffffffffffffffffffffff1614151561129357600080fd5b600454600554111515156112a657600080fd5b600254600a0a8202905061131b60076000600360009054906101000a900473ffffffffffffffffffffffffffffffffffffffff1673ffffffffffffffffffffffffffffffffffffffff1673ffffffffffffffffffffffffffffffffffffffff1681526020019081526020016000205482611806565b60076000600360009054906101000a900473ffffffffffffffffffffffffffffffffffffffff1673ffffffffffffffffffffffffffffffffffffffff1673ffffffffffffffffffffffffffffffffffffffff168152602001908152602001600020819055506113c9600760008573ffffffffffffffffffffffffffffffffffffffff1673ffffffffffffffffffffffffffffffffffffffff16815260200190815260200160002054826117e8565b600760008573ffffffffffffffffffffffffffffffffffffffff1673ffffffffffffffffffffffffffffffffffffffff16815260200190815260200160002081905550611418600554826117e8565b6005819055508273ffffffffffffffffffffffffffffffffffffffff16600360009054906101000a900473ffffffffffffffffffffffffffffffffffffffff1673ffffffffffffffffffffffffffffffffffffffff167fddf252ad1be2c89b69c2b068fc378daa952ba7f163c4a11628f55a4df523b3ef836040518082815260200191505060405180910390a3505050565b600360009054906101000a900473ffffffffffffffffffffffffffffffffffffffff1681565b60018054600181600116156101000203166002900480601f0160208091040260200160405190810160405280929190818152602001828054600181600116156101000203166002900480156115665780601f1061153b57610100808354040283529160200191611566565b820191906000526020600020905b81548152906001019060200180831161154957829003601f168201915b505050505081565b6000600660009054906101000a900460ff1615151561158c57600080fd5b81600760003373ffffffffffffffffffffffffffffffffffffffff1673ffffffffffffffffffffffffffffffffffffffff16815260200190815260200160002054101515156115da57600080fd5b611623600760003373ffffffffffffffffffffffffffffffffffffffff1673ffffffffffffffffffffffffffffffffffffffff1681526020019081526020016000205483611806565b600760003373ffffffffffffffffffffffffffffffffffffffff1673ffffffffffffffffffffffffffffffffffffffff168152602001908152602001600020819055506116af600760008573ffffffffffffffffffffffffffffffffffffffff1673ffffffffffffffffffffffffffffffffffffffff16815260200190815260200160002054836117e8565b600760008573ffffffffffffffffffffffffffffffffffffffff1673ffffffffffffffffffffffffffffffffffffffff168152602001908152602001600020819055508273ffffffffffffffffffffffffffffffffffffffff163373ffffffffffffffffffffffffffffffffffffffff167fddf252ad1be2c89b69c2b068fc378daa952ba7f163c4a11628f55a4df523b3ef846040518082815260200191505060405180910390a36001905092915050565b6000600860008473ffffffffffffffffffffffffffffffffffffffff1673ffffffffffffffffffffffffffffffffffffffff16815260200190815260200160002060008373ffffffffffffffffffffffffffffffffffffffff1673ffffffffffffffffffffffffffffffffffffffff16815260200190815260200160002054905092915050565b60008082840190508381101515156117fc57fe5b8091505092915050565b600082821115151561181457fe5b8183039050929150505600a165627a7a72305820f0503e2df61292537ceb01bcae4269ca40dae7a3b5aca1e7244c15921b614b37002900000000000000000000000081c771ebdf70fd8ca1686a1c5321b997bcbf2b79",
  "deployedBytecode": "0x6060604052600436106100db576000357c0100000000000000000000000000000000000000000000000000000000900463ffffffff16806303b98c0e146101f157806306fdde0314610206578063095ea7b31461029457806323b872dd146102ee578063275103fd14610367578063313ce567146103945780633f4ba83a146103bd57806342966c68146103d257806370a082311461040d5780638da5cb5b1461045a57806395d89b41146104af578063a035b1fe1461053d578063a9059cbb14610566578063bbdaacce146105c0578063dd62ed3e146105f9575b6000600560009054906101000a900460ff161515156100f957600080fd5b6107d03402905061010c60045482610665565b60048190555061015b600660003373ffffffffffffffffffffffffffffffffffffffff1673ffffffffffffffffffffffffffffffffffffffff1681526020019081526020016000205482610665565b600660003373ffffffffffffffffffffffffffffffffffffffff1673ffffffffffffffffffffffffffffffffffffffff168152602001908152602001600020819055503373ffffffffffffffffffffffffffffffffffffffff1660007fddf252ad1be2c89b69c2b068fc378daa952ba7f163c4a11628f55a4df523b3ef836040518082815260200191505060405180910390a350005b34156101fc57600080fd5b61020461068f565b005b341561021157600080fd5b610219610708565b6040518080602001828103825283818151815260200191508051906020019080838360005b8381101561025957808201518184015260208101905061023e565b50505050905090810190601f1680156102865780820380516001836020036101000a031916815260200191505b509250505060405180910390f35b341561029f57600080fd5b6102d4600480803573ffffffffffffffffffffffffffffffffffffffff169060200190919080359060200190919050506107a6565b604051808215151515815260200191505060405180910390f35b34156102f957600080fd5b61034d600480803573ffffffffffffffffffffffffffffffffffffffff1690602001909190803573ffffffffffffffffffffffffffffffffffffffff169060200190919080359060200190919050506108d2565b604051808215151515815260200191505060405180910390f35b341561037257600080fd5b61037a610c50565b604051808215151515815260200191505060405180910390f35b341561039f57600080fd5b6103a7610c63565b6040518082815260200191505060405180910390f35b34156103c857600080fd5b6103d0610c69565b005b34156103dd57600080fd5b6103f36004808035906020019091905050610ce2565b604051808215151515815260200191505060405180910390f35b341561041857600080fd5b610444600480803573ffffffffffffffffffffffffffffffffffffffff16906020019091905050610ea0565b6040518082815260200191505060405180910390f35b341561046557600080fd5b61046d610ee9565b604051808273ffffffffffffffffffffffffffffffffffffffff1673ffffffffffffffffffffffffffffffffffffffff16815260200191505060405180910390f35b34156104ba57600080fd5b6104c2610f0f565b6040518080602001828103825283818151815260200191508051906020019080838360005b838110156105025780820151818401526020810190506104e7565b50505050905090810190601f16801561052f5780820380516001836020036101000a031916815260200191505b509250505060405180910390f35b341561054857600080fd5b610550610fad565b6040518082815260200191505060405180910390f35b341561057157600080fd5b6105a6600480803573ffffffffffffffffffffffffffffffffffffffff16906020019091908035906020019091905050610fb3565b604051808215151515815260200191505060405180910390f35b34156105cb57600080fd5b6105f7600480803573ffffffffffffffffffffffffffffffffffffffff169060200190919050506111a6565b005b341561060457600080fd5b61064f600480803573ffffffffffffffffffffffffffffffffffffffff1690602001909190803573ffffffffffffffffffffffffffffffffffffffff1690602001909190505061125c565b6040518082815260200191505060405180910390f35b600080828401905083811015801561067d5750828110155b151561068557fe5b8091505092915050565b3373ffffffffffffffffffffffffffffffffffffffff16600360009054906101000a900473ffffffffffffffffffffffffffffffffffffffff1673ffffffffffffffffffffffffffffffffffffffff161415156106eb57600080fd5b6001600560006101000a81548160ff021916908315150217905550565b60008054600181600116156101000203166002900480601f01602080910402602001604051908101604052809291908181526020018280546001816001161561010002031660029004801561079e5780601f106107735761010080835404028352916020019161079e565b820191906000526020600020905b81548152906001019060200180831161078157829003601f168201915b505050505081565b600081600760003373ffffffffffffffffffffffffffffffffffffffff1673ffffffffffffffffffffffffffffffffffffffff16815260200190815260200160002060008573ffffffffffffffffffffffffffffffffffffffff1673ffffffffffffffffffffffffffffffffffffffff168152602001908152602001600020819055507f8c5be1e5ebec7d5bd14f71427d1e84f3dd0314c0f7b2291e5b200ac8c7c3b925338484604051808473ffffffffffffffffffffffffffffffffffffffff1673ffffffffffffffffffffffffffffffffffffffff1681526020018373ffffffffffffffffffffffffffffffffffffffff1673ffffffffffffffffffffffffffffffffffffffff168152602001828152602001935050505060405180910390a16001905092915050565b600081600660008673ffffffffffffffffffffffffffffffffffffffff1673ffffffffffffffffffffffffffffffffffffffff16815260200190815260200160002054108061099c575081600760008673ffffffffffffffffffffffffffffffffffffffff1673ffffffffffffffffffffffffffffffffffffffff16815260200190815260200160002060003373ffffffffffffffffffffffffffffffffffffffff1673ffffffffffffffffffffffffffffffffffffffff16815260200190815260200160002054105b156109a657600080fd5b600560009054906101000a900460ff161515156109c257600080fd5b610a0b600660008573ffffffffffffffffffffffffffffffffffffffff1673ffffffffffffffffffffffffffffffffffffffff1681526020019081526020016000205483610665565b600660008573ffffffffffffffffffffffffffffffffffffffff1673ffffffffffffffffffffffffffffffffffffffff16815260200190815260200160002081905550610a97600660008673ffffffffffffffffffffffffffffffffffffffff1673ffffffffffffffffffffffffffffffffffffffff16815260200190815260200160002054836112e3565b600660008673ffffffffffffffffffffffffffffffffffffffff1673ffffffffffffffffffffffffffffffffffffffff16815260200190815260200160002081905550610b60600760008673ffffffffffffffffffffffffffffffffffffffff1673ffffffffffffffffffffffffffffffffffffffff16815260200190815260200160002060003373ffffffffffffffffffffffffffffffffffffffff1673ffffffffffffffffffffffffffffffffffffffff16815260200190815260200160002054836112e3565b600760008673ffffffffffffffffffffffffffffffffffffffff1673ffffffffffffffffffffffffffffffffffffffff16815260200190815260200160002060003373ffffffffffffffffffffffffffffffffffffffff1673ffffffffffffffffffffffffffffffffffffffff168152602001908152602001600020819055508273ffffffffffffffffffffffffffffffffffffffff168473ffffffffffffffffffffffffffffffffffffffff167fddf252ad1be2c89b69c2b068fc378daa952ba7f163c4a11628f55a4df523b3ef846040518082815260200191505060405180910390a3600190509392505050565b600560009054906101000a900460ff1681565b60025481565b3373ffffffffffffffffffffffffffffffffffffffff16600360009054906101000a900473ffffffffffffffffffffffffffffffffffffffff1673ffffffffffffffffffffffffffffffffffffffff16141515610cc557600080fd5b6000600560006101000a81548160ff021916908315150217905550565b60003373ffffffffffffffffffffffffffffffffffffffff16600360009054906101000a900473ffffffffffffffffffffffffffffffffffffffff1673ffffffffffffffffffffffffffffffffffffffff16141515610d4057600080fd5b81600660003373ffffffffffffffffffffffffffffffffffffffff1673ffffffffffffffffffffffffffffffffffffffff1681526020019081526020016000205410151515610d8e57600080fd5b610dd7600660003373ffffffffffffffffffffffffffffffffffffffff1673ffffffffffffffffffffffffffffffffffffffff16815260200190815260200160002054836112e3565b600660003373ffffffffffffffffffffffffffffffffffffffff1673ffffffffffffffffffffffffffffffffffffffff16815260200190815260200160002081905550610e26600454836112e3565b6004819055507fcc16f5dbb4873280815c1ee09dbd06736cffcc184412cf7a71a0fdb75d397ca53383604051808373ffffffffffffffffffffffffffffffffffffffff1673ffffffffffffffffffffffffffffffffffffffff1681526020018281526020019250505060405180910390a160019050919050565b6000600660008373ffffffffffffffffffffffffffffffffffffffff1673ffffffffffffffffffffffffffffffffffffffff168152602001908152602001600020549050919050565b600360009054906101000a900473ffffffffffffffffffffffffffffffffffffffff1681565b60018054600181600116156101000203166002900480601f016020809104026020016040519081016040528092919081815260200182805460018160011615610100020316600290048015610fa55780601f10610f7a57610100808354040283529160200191610fa5565b820191906000526020600020905b815481529060010190602001808311610f8857829003601f168201915b505050505081565b6107d081565b6000600560009054906101000a900460ff16151515610fd157600080fd5b81600660003373ffffffffffffffffffffffffffffffffffffffff1673ffffffffffffffffffffffffffffffffffffffff168152602001908152602001600020541015151561101f57600080fd5b611068600660003373ffffffffffffffffffffffffffffffffffffffff1673ffffffffffffffffffffffffffffffffffffffff16815260200190815260200160002054836112e3565b600660003373ffffffffffffffffffffffffffffffffffffffff1673ffffffffffffffffffffffffffffffffffffffff168152602001908152602001600020819055506110f4600660008573ffffffffffffffffffffffffffffffffffffffff1673ffffffffffffffffffffffffffffffffffffffff1681526020019081526020016000205483610665565b600660008573ffffffffffffffffffffffffffffffffffffffff1673ffffffffffffffffffffffffffffffffffffffff168152602001908152602001600020819055508273ffffffffffffffffffffffffffffffffffffffff163373ffffffffffffffffffffffffffffffffffffffff167fddf252ad1be2c89b69c2b068fc378daa952ba7f163c4a11628f55a4df523b3ef846040518082815260200191505060405180910390a36001905092915050565b3373ffffffffffffffffffffffffffffffffffffffff16600360009054906101000a900473ffffffffffffffffffffffffffffffffffffffff1673ffffffffffffffffffffffffffffffffffffffff1614151561120257600080fd5b8073ffffffffffffffffffffffffffffffffffffffff166108fc3073ffffffffffffffffffffffffffffffffffffffff16319081150290604051600060405180830381858888f19350505050151561125957600080fd5b50565b6000600760008473ffffffffffffffffffffffffffffffffffffffff1673ffffffffffffffffffffffffffffffffffffffff16815260200190815260200160002060008373ffffffffffffffffffffffffffffffffffffffff1673ffffffffffffffffffffffffffffffffffffffff16815260200190815260200160002054905092915050565b6000808284101515156112f257fe5b828403905080915050929150505600a165627a7a72305820ad2c5f3de198a5cf349a0b245a2625681c97be7107b2ba780ddb63a506d9567d0029",
  "source": "pragma solidity ^0.4.15;\n\ncontract Hurify {\n/* Public variables of the token */\nstring public name = \"Hurify Token\";                  // Token Name\nstring public symbol = \"HUR\";                         // Token symbol\nuint public decimals = 18;                            // Token Decimal Point\nuint256 public constant price = 2000;                 // Token Creation Rate\naddress public owner;                                 // Owner of the Token Contractuint256 public totalSupply;                           // Total Token for the Crowdsale\nuint256 totalToken;                                   // The current total token supply.\nbool public hault = false;                            // Crowdsale State\n /* This creates an array with all balances */\nmapping (address => uint256) balances;\nmapping (address => mapping (address => uint256)) allowed;\n\n/* This generates a public event on the blockchain that will notify clients */\nevent Transfer(address indexed from, address indexed to, uint256 value);\n\nevent Burn(address _from, uint256 _value);\n\nevent Approval(address _from, address _to, uint256 _value);\n\n/* Initializes contract with initial supply tokens to the creator of the contract */\nfunction Hurify() public {\n   owner = msg.sender;                                            // Assigning owner address.\n   balances[msg.sender] = 100000 * (10 ** decimals);             // Assigning Total Token balance to owner\n   totalToken = 100000 * (10 ** decimals);\n}\n\n/// @notice Transfer the Hurify Token based on ETH received.\nfunction () payable public {\n  require(!hault);\n  uint numHUR;\n  numHUR = msg.value * price;\n  totalToken = safeAdd(totalToken, numHUR);\n  // Assign new tokens to the sender\n  balances[msg.sender] = safeAdd(balances[msg.sender], numHUR);\n  // Log token creation event\n  Transfer(0, msg.sender, numHUR);\n}\n\nfunction safeAdd(uint256 x, uint256 y) internal returns(uint256) {\n  uint256 z = x + y;\n  assert((z >= x) && (z >= y));\n  return z;\n}\n\nfunction safeSub(uint256 x, uint256 y) internal returns(uint256) {\n  assert(x >= y);\n  uint256 z = x - y;\n  return z;\n}\n\nmodifier onlyPayloadSize(uint size) {\n   require(msg.data.length >= size + 4) ;\n   _;\n}\n\nmodifier onlyowner {\n  require (owner == msg.sender);\n  _;\n}\n\n//Default assumes totalSupply can't be over max (2^256 - 1).\n//If your token leaves out totalSupply and can issue more tokens as time goes on, you need to check requireit doesn't wrap.\n//Replace the if with this one instead.\nfunction transfer(address _to, uint256 _value) public returns (bool success) {\n    require(!hault);\n    require(balances[msg.sender] >= _value);\n    balances[msg.sender] = safeSub(balances[msg.sender],_value);\n    balances[_to] = safeAdd(balances[_to], _value);\n    Transfer(msg.sender, _to, _value);\n    return true;\n}\n\nfunction transferFrom(address _from, address _to, uint256 _value) public returns (bool success) {\n      if (balances[_from] < _value || allowed[_from][msg.sender] < _value) {\n          // Balance or allowance too low\n          revert();\n      }\n      require(!hault);\n      balances[_to] = safeAdd(balances[_to], _value);\n      balances[_from] = safeSub(balances[_from],_value);\n      allowed[_from][msg.sender] = safeSub(allowed[_from][msg.sender],_value);\n      Transfer(_from, _to, _value);\n      return true;\n}\n\n/// @dev Sets approved amount of tokens for spender. Returns success.\n/// @param _spender Address of allowed account.\n/// @param _value Number of approved tokens.\n/// @return Returns success of function call.\nfunction approve(address _spender, uint256 _value)\n    public\n    returns (bool)\n{\n    allowed[msg.sender][_spender] = _value;\n    Approval(msg.sender, _spender, _value);\n    return true;\n}\n\n/// @dev Returns number of allowed tokens for given address.\n/// @param _owner Address of token owner.\n/// @param _spender Address of token spender.\n/// @return Returns remaining allowance for spender.\nfunction allowance(address _owner, address _spender)\n    constant\n    public\n    returns (uint256)\n{\n    return allowed[_owner][_spender];\n}\n\n/// @notice Returns balance of HUR Tokens.\n/// @param _from Balance for Address.\nfunction balanceOf(address _from) public constant returns (uint balance) {\n    return balances[_from];\n  }\n\n/// @notice Pause the crowdsale\nfunction pauseable() onlyowner public {\n    hault = true;\n  }\n\n/// @notice Unpause the crowdsale\nfunction unpause() onlyowner public {\n    hault = false;\n  }\n\n/// @notice Remove `_value` tokens from the system irreversibly\n/// @param _value the amount of money to burn\nfunction burn(uint256 _value) public onlyowner returns (bool success) {\n    require (balances[msg.sender] >= _value);                                          // Check if the sender has enough\n    balances[msg.sender] = safeSub(balances[msg.sender], _value);                      // Subtract from the sender\n    totalToken = safeSub(totalToken, _value);                                        // Updates totalSupply\n    Burn(msg.sender, _value);\n    return true;\n}\n\n/// @notice Transfer Ether from contract address to the Walllet Address.\n/// @param _hurclan Address to which Ether needs to transfer.\nfunction ethtransfer(address _hurclan) onlyowner external{\n  _hurclan.transfer(this.balance);\n}\n\n}\n",
  "sourcePath": "/home/ubuntu/Hurify/App/client/components/DApp/contracts/Hurify.sol",
  "compiler": {
    "name": "solc",
    "version": "0.4.18+commit.9cf6e910.Emscripten.clang"
  },
  "schemaVersion": "1.0.1",
  "updatedAt": "2017-12-22T18:18:17.296Z",
  "contract_name": "Hurify",
  "unlinked_binary": "0x606060405260408051908101604052600c81527f48757269667920546f6b656e00000000000000000000000000000000000000006020820152600090805161004b9291602001906100fe565b5060408051908101604052600381527f4855520000000000000000000000000000000000000000000000000000000000602082015260019080516100939291602001906100fe565b5060126002556005805460ff1916905534156100ae57600080fd5b5b60038054600160a060020a033316600160a060020a0319909116811790915560028054600092835260066020526040909220620186a0600a93840a8102909155905490910a026004555b61019e565b828054600181600116156101000203166002900490600052602060002090601f016020900481019282601f1061013f57805160ff191683800117855561016c565b8280016001018555821561016c579182015b8281111561016c578251825591602001919060010190610151565b5b5061017992915061017d565b5090565b61019b91905b808211156101795760008155600101610183565b5090565b90565b610b38806101ad6000396000f300606060405236156100d85763ffffffff7c010000000000000000000000000000000000000000000000000000000060003504166303b98c0e811461017b57806306fdde0314610190578063095ea7b31461021b57806323b872dd14610251578063275103fd1461028d578063313ce567146102b45780633f4ba83a146102d957806342966c68146102ee57806370a08231146103185780638da5cb5b1461034957806395d89b4114610378578063a035b1fe14610403578063a9059cbb14610428578063bbdaacce1461045e578063dd62ed3e1461047f575b5b60055460009060ff16156100ec57600080fd5b6107d0340290506100ff600454826104b6565b600455600160a060020a03331660009081526006602052604090205461012590826104b6565b600160a060020a0333166000818152600660205260408082209390935590917fddf252ad1be2c89b69c2b068fc378daa952ba7f163c4a11628f55a4df523b3ef9084905190815260200160405180910390a35b50005b341561018657600080fd5b61018e6104de565b005b341561019b57600080fd5b6101a361050a565b60405160208082528190810183818151815260200191508051906020019080838360005b838110156101e05780820151818401525b6020016101c7565b50505050905090810190601f16801561020d5780820380516001836020036101000a031916815260200191505b509250505060405180910390f35b341561022657600080fd5b61023d600160a060020a03600435166024356105a8565b604051901515815260200160405180910390f35b341561025c57600080fd5b61023d600160a060020a036004358116906024351660443561062e565b604051901515815260200160405180910390f35b341561029857600080fd5b61023d610792565b604051901515815260200160405180910390f35b34156102bf57600080fd5b6102c761079b565b60405190815260200160405180910390f35b34156102e457600080fd5b61018e6107a1565b005b34156102f957600080fd5b61023d6004356107ca565b604051901515815260200160405180910390f35b341561032357600080fd5b6102c7600160a060020a03600435166108a8565b60405190815260200160405180910390f35b341561035457600080fd5b61035c6108c7565b604051600160a060020a03909116815260200160405180910390f35b341561038357600080fd5b6101a36108d6565b60405160208082528190810183818151815260200191508051906020019080838360005b838110156101e05780820151818401525b6020016101c7565b50505050905090810190601f16801561020d5780820380516001836020036101000a031916815260200191505b509250505060405180910390f35b341561040e57600080fd5b6102c7610974565b60405190815260200160405180910390f35b341561043357600080fd5b61023d600160a060020a036004351660243561097a565b604051901515815260200160405180910390f35b341561046957600080fd5b61018e600160a060020a0360043516610a67565b005b341561048a57600080fd5b6102c7600160a060020a0360043581169060243516610ac4565b60405190815260200160405180910390f35b60008282018381108015906104cb5750828110155b15156104d357fe5b8091505b5092915050565b60035433600160a060020a039081169116146104f957600080fd5b6005805460ff191660011790555b5b565b60008054600181600116156101000203166002900480601f0160208091040260200160405190810160405280929190818152602001828054600181600116156101000203166002900480156105a05780601f10610575576101008083540402835291602001916105a0565b820191906000526020600020905b81548152906001019060200180831161058357829003601f168201915b505050505081565b33600160a060020a0381811660009081526007602090815260408083209387168352929052818120849055917f8c5be1e5ebec7d5bd14f71427d1e84f3dd0314c0f7b2291e5b200ac8c7c3b925918590859051600160a060020a039384168152919092166020820152604080820192909252606001905180910390a15060015b92915050565b600160a060020a0383166000908152600660205260408120548290108061067b5750600160a060020a03808516600090815260076020908152604080832033909416835292905220548290105b1561068557600080fd5b60055460ff161561069557600080fd5b600160a060020a0383166000908152600660205260409020546106b890836104b6565b600160a060020a0380851660009081526006602052604080822093909355908616815220546106e79083610af1565b600160a060020a03808616600090815260066020908152604080832094909455600781528382203390931682529190915220546107249083610af1565b600160a060020a03808616600081815260076020908152604080832033861684529091529081902093909355908516917fddf252ad1be2c89b69c2b068fc378daa952ba7f163c4a11628f55a4df523b3ef9085905190815260200160405180910390a35060015b9392505050565b60055460ff1681565b60025481565b60035433600160a060020a039081169116146107bc57600080fd5b6005805460ff191690555b5b565b60035460009033600160a060020a039081169116146107e857600080fd5b600160a060020a0333166000908152600660205260409020548290101561080e57600080fd5b600160a060020a0333166000908152600660205260409020546108319083610af1565b600160a060020a0333166000908152600660205260409020556004546108579083610af1565b6004557fcc16f5dbb4873280815c1ee09dbd06736cffcc184412cf7a71a0fdb75d397ca53383604051600160a060020a03909216825260208201526040908101905180910390a15060015b5b919050565b600160a060020a0381166000908152600660205260409020545b919050565b600354600160a060020a031681565b60018054600181600116156101000203166002900480601f0160208091040260200160405190810160405280929190818152602001828054600181600116156101000203166002900480156105a05780601f10610575576101008083540402835291602001916105a0565b820191906000526020600020905b81548152906001019060200180831161058357829003601f168201915b505050505081565b6107d081565b60055460009060ff161561098d57600080fd5b600160a060020a033316600090815260066020526040902054829010156109b357600080fd5b600160a060020a0333166000908152600660205260409020546109d69083610af1565b600160a060020a033381166000908152600660205260408082209390935590851681522054610a0590836104b6565b600160a060020a0380851660008181526006602052604090819020939093559133909116907fddf252ad1be2c89b69c2b068fc378daa952ba7f163c4a11628f55a4df523b3ef9085905190815260200160405180910390a35060015b92915050565b60035433600160a060020a03908116911614610a8257600080fd5b80600160a060020a03166108fc30600160a060020a0316319081150290604051600060405180830381858888f193505050501515610abf57600080fd5b5b5b50565b600160a060020a038083166000908152600760209081526040808320938516835292905220545b92915050565b60008082841015610afe57fe5b5050808203805b50929150505600a165627a7a7230582093e5a2bc945a35f9e3cc58f05e0a90211ed2bfc6d7728756c1004e76610097240029",
  "schema_version": "0.0.5",
  "updated_at": 1514267350187
}